:100000000C94DF000C94200E0C94F90D0C94070155
:100010000C9407010C9407010C9407010C94070140
:100020000C9407010C9407010C9407010C94070130
:100030000C9407010C9407010C9407010C94070120
:100040000C94AF0D0C9407010C947D0D0C94570D7E
:100050000C9407010C9407010C9407010C94070100
:100060000C94470E0C94070100407A10F35A00A03C
:10007000724E18090010A5D4E80000E87648170071
:1000800000E40B54020000CA9A3B000000E1F505B1
:10009000000080969800000040420F000000A086FB
:1000A00001000000102700000000E803000000002D
:1000B0006400000000000A000000000001000000D1
:1000C00000002C76D888DC674F0823DFC1DFAE59EB
:1000D000E1B1B796E5E3E453C63AE651997696E87E
:1000E000E6C28426EB898C9B62ED407C6FFCEFBC02
:1000F0009C9F40F2BAA56FA5F490055A2AF75C932D
:100100006B6CF9676DC11BFCE0E40D47FEF520E662
:10011000B500D0ED902E0300943577050080841E45
:10012000080000204E0A000000C80C333333330FA0
:10013000986E12831141EF8D2114893BE65516CF3D
:10014000FEE6DB18D1844B381BF77C1D901DA4BB49
:10015000E424203284725E228100C9F124ECA1E5FE
:100160003D270000000023002600290000000008B1
:10017000000201000003040700000000000000006E
:1001800000000000250028002B00000000002400D3
:1001900027002A00040404040404040402020202E6
:1001A000020203030303030301020408102040803A
:1001B000010204081020010204081020660F112417
:1001C0001FBECFEFD8E0DEBFCDBF24E0AAE8B2E08B
:1001D00001C01D92A236B207E1F712E0A0E0B1E043
:1001E000EAE3F8E302C005900D92AA38B107D9F707
:1001F00010E0CFEDD0E004C02197FE010E94231A49
:10020000CE3DD107C9F70E94E60F0C941B1C0C943D
:1002100000008091F9029091FA02891B990B0895D0
:10022000CF93DF9390E0FC01E855FE4F24918C566C
:100230009E4FFC0184918823C1F090E0880F991FA4
:10024000FC01E657FE4FC591D491FC01E058FE4FEA
:10025000A591B4919FB7F8943881822F809583231C
:100260008883EC91E22BEC939FBFDF91CF910895AF
:10027000F89489B18C7080938C0280918C028C30C0
:1002800089F480918A02882369F08091F702815075
:100290008093F7021092E60210928B0210928A026B
:1002A0007894089580918C028430D1F781E0809316
:1002B0008B02F6CFF89489B18C7080938C02809178
:1002C0008C028C3091F480918B02882371F08091A4
:1002D000F7028F5F8093F70281E08093E60210922D
:1002E0008B0210928A027894089580918C02883053
:1002F000D1F781E080938A02F6CF08950895AF92F6
:10030000BF92CF92DF92EF92FF920F931F93CF9302
:10031000DF936C017B018B01040F151FEB015E0164
:10032000AE18BF08C017D10759F06991D601ED91F9
:10033000FC910190F081E02DC6010995892B79F798
:10034000C501DF91CF911F910F91FF90EF90DF904A
:10035000CF90BF90AF900895FC01538D448D252F11
:1003600030E0842F90E0821B930B541710F0CF964F
:10037000089501970895FC01918D828D981761F081
:10038000A28DAE0FBF2FB11D5D968C91928D9F5F98
:100390009F73928F90E008958FEF9FEF0895FC0177
:1003A000918D828D981731F0828DE80FF11D858D2A
:1003B00090E008958FEF9FEF0895FC01918D228DBD
:1003C000892F90E0805C9F4F821B91098F73992742
:1003D00008958BE693E00E94DD0121E0892B09F46A
:1003E00020E0822F089580E090E0892B29F00E9480
:1003F000E90181110C9400000895FC01A48DA80F5F
:10040000B92FB11DA35ABF4F2C91848D90E0019656
:100410008F739927848FA689B7892C93A089B18976
:100420008C91837080648C93938D848D981306C017
:100430000288F389E02D80818F7D80830895EF927B
:10044000FF920F931F93CF93DF93EC0181E0888F8E
:100450009B8D8C8D98131AC0E889F989808185FF5E
:1004600015C09FB7F894EE89FF896083E889F98900
:1004700080818370806480839FBF81E090E0DF9102
:10048000CF911F910F91FF90EF900895F62E0B8D55
:1004900010E00F5F1F4F0F731127E02E8C8D8E1110
:1004A0000CC00FB607FCFACFE889F989808185FF77
:1004B000F5CFCE010E94FD01F1CFEB8DEC0FFD2FAA
:1004C000F11DE35AFF4FF0829FB7F8940B8FEA8932
:1004D000FB8980818062CFCFCF93DF93EC01888D41
:1004E0008823B9F0AA89BB89E889F9898C9185FDAF
:1004F00003C0808186FD0DC00FB607FCF7CF8C913D
:1005000085FFF2CF808185FFEDCFCE010E94FD01F6
:10051000E9CFDF91CF910895833081F028F48130C5
:1005200099F08230A9F008958730A9F08830C9F099
:100530008430B1F4809180008F7D03C08091800071
:100540008F7780938000089584B58F7784BD089558
:1005500084B58F7DFBCF8091B0008F778093B00002
:1005600008958091B0008F7DF9CF1F93CF93DF93D3
:10057000282F30E0F901E459FE4F8491F901E85544
:10058000FE4FD491F901EC56FE4FC491CC23A9F053
:10059000162F81110E948C02EC2FF0E0EE0FFF1F4E
:1005A000E058FE4FA591B4918FB7F894EC911111DA
:1005B00008C0D095DE23DC938FBFDF91CF911F91D0
:1005C0000895DE2BF8CF3FB7F8948091D202909136
:1005D000D302A091D402B091D50226B5A89B05C044
:1005E0002F3F19F00196A11DB11D3FBFBA2FA92FB2
:1005F000982F8827BC01CD01620F711D811D911DAF
:1006000042E0660F771F881F991F4A95D1F708951A
:100610008F929F92AF92BF92CF92DF92EF92FF9212
:100620004B015C010E94E3026B017C010E94E3022A
:100630006C197D098E099F09683E734081059105FB
:10064000A8F321E0821A9108A108B10888EEC80E2B
:1006500083E0D81EE11CF11C81149104A104B104B3
:1006600029F7FF90EF90DF90CF90BF90AF909F90D1
:100670008F900895089508952091AE02260F332794
:10068000331F21323105ECF420914103FC0190E04D
:1006900080E0243069F082E00895A091AE022191BB
:1006A000AC0142575D4FA40FB52FB11D2C9301969D
:1006B000861798F38091AE02680F6093AE0280E0D7
:1006C000089581E008951092410381E080934003F2
:1006D00010921B0361E082E10E94B50261E083E1B8
:1006E0000E94B502E9EBF0E080818E7F80838081FB
:1006F0008D7F808388E48093B80085E48093BC007C
:100700000895CF93DF9391E090938D028823B9F001
:10071000C091B800D091BA008091BC008A7B8093D0
:10072000BC0060E082E10E94B50260E083E10E94CB
:10073000B5020E946303D093BA00C093B800DF9162
:10074000CF910895CF92DF92EF92FF920F931F9374
:10075000CF93DF93D0916A0381E0D13208F09CC03F
:10076000C09169030E94E3026B017C018091410307
:1007700081116CC082E08093410381E0809340034B
:100780008FEF80933F0310923E03D0933D03A9E483
:10079000B3E0EDE1F3E080E0D8138DC010921C03CC
:1007A00080911C03CC0FC82BC0931C0380911B03AA
:1007B000813009F084C010921B030E94E3026B0198
:1007C0007C0180911C038093BB0080914303909136
:1007D0004403A0914503B0914603892B8A2B8B2BB0
:1007E000A1F00E94E3020091430310914403209181
:1007F0004503309146036C197D098E099F09061740
:1008000017072807390708F442C08091BC0083FD10
:10081000D8CF85EC8093BC000E94E3026B017C0181
:1008200080914103823009F44CC080913F038F3F97
:1008300009F469C080913F03803209F466C0809159
:100840003F03803309F463C084E026C080914303F2
:1008500090914403A0914503B0914603892B8A2BC4
:100860008B2B09F483CF0E94E30200914303109184
:10087000440320914503309146036C197D098E098C
:100880009F09061717072807390708F06FCF8091CF
:1008900042030E94810385E01092480310926A038C
:1008A00010924703DF91CF911F910F91FF90EF902E
:1008B000DF90CF9008959D9191938F5F6DCF85EEDE
:1008C000A9CF8091430390914403A0914503B09137
:1008D0004603892B8A2B8B2B09F4A2CF0E94E302BB
:1008E0000091430310914403209145033091460346
:1008F0006C197D098E099F09061717072807390704
:1009000008F08ECFC4CF80E0C7CF82E0C5CF83E0B0
:10091000C3CF0895E091FA028091F902E81730F40C
:10092000F0E0E550FD4F808190E008958FEF9FEF5C
:1009300008959091FA028091F9022FEF3FEF9817F6
:1009400048F4E92FF0E0E550FD4F208130E09F5F53
:100950009093FA02C9010895CF92DF92EF92FF922D
:100960000F931F93CF93DF937C01CB018A012091DA
:100970004703222389F0EB016B01C40ED51ECC1571
:10098000DD0569F06991D701ED91FC910190F0814D
:10099000E02DC7010995F3CF642F0E943C03C801E5
:1009A000DF91CF911F910F91FF90EF90DF90CF904B
:1009B0000895CF93DF931F92CDB7DEB7698320915F
:1009C00047032223F9F020916A03203258F021E0F6
:1009D00030E0FC013383228390E080E00F90DF91D0
:1009E000CF91089580914803E82FF0E0E75BFC4F3A
:1009F000998190838F5F8093480380936A0381E09D
:100A000090E0ECCF61E0CE0101960E943C03F7CF6D
:100A10000F931F93CF93DF938B0191E09093470344
:100A200090E6909369031092480310926A03682F2E
:100A300088E094E00E94D904E801085F1F4F6991A3
:100A400088E094E00E94D904C017D107C1F7DF9174
:100A5000CF911F910F910C94A203CF93C62F91E0D9
:100A60009093470390E69093690310924803109285
:100A70006A03682F88E094E00E94D9046C2F88E014
:100A800094E00E94D904CF910C94A203FC0124812C
:100A900031E030934703209369031092480310928A
:100AA0006A038385682B88E094E00E94D9040C9443
:100AB000A20390E080E00895CF92DF92EF92FF9240
:100AC0000F931F93CF93DF9391E09093470390E6AA
:100AD000909369031092480310926A03682F88E08C
:100AE00094E00E94D9040E94A2030E94E3026B01D9
:100AF0007C0180914103811164C081E080934103B6
:100B0000109240039FEF90933F0310923E03109288
:100B10003D0380931C0380911C03806C80931C0315
:100B200080911B03813009F080C010921B030E944A
:100B3000E3026B017C0180911C038093BB008091D8
:100B4000430390914403A0914503B0914603892B40
:100B50008A2B8B2BA1F00E94E3020091430310919A
:100B6000440320914503309146036C197D098E0999
:100B70009F09061717072807390708F443C0809113
:100B8000BC0083FDD8CF85EC8093BC000E94E302BB
:100B90006B017C0180914103813009F448C0809150
:100BA0003E03C1E0811102C0C0913E03ADE1B3E05C
:100BB000EBEFF2E080E08C1751F19D9191938F5F04
:100BC000FACF8091430390914403A0914503B091E3
:100BD0004603892B8A2B8B2B09F48BCF0E94E302CF
:100BE0000091430310914403209145033091460343
:100BF0006C197D098E099F09061717072807390701
:100C000008F077CF809142030E948103C0E01092E8
:100C1000FA02C093F9028091FA02C81751F188E0F4
:100C200094E00E949904D82FF6CF85EEADCF809145
:100C3000430390914403A0914503B0914603892B4F
:100C40008A2B8B2B09F4A6CF0E94E3020091430369
:100C50001091440320914503309146036C197D099E
:100C60008E099F09061717072807390708F092CF42
:100C7000C9CF8D2FDF91CF911F910F91FF90EF90F2
:100C8000DF90CF9008950F931F93CF938C01C62FC1
:100C90000E9446056C2F6460C8010E9446056C2FB7
:100CA0006B7FC8010E94460583EC90E00197F1F745
:100CB000CF911F910F9108950F931F93CF93DF93BF
:100CC0008C01D62FC42F607F642B0E94430680E1E5
:100CD000D89FB00111246C2BC801DF91CF911F91D7
:100CE0000F910C944306CF93DF93CDB7DEB72897CF
:100CF0000FB6F894DEBF0FBECDBF98E0EDE1F1E096
:100D0000DE01119601900D929A95E1F790911C04E5
:100D1000961708F46FEF262F30E0220F331F41E0C3
:100D200050E04C0F5D1F240F351FF9016081680FE3
:100D3000606840E084E194E028960FB6F894DEBF46
:100D40000FBECDBFDF91CF910C945C0641E00E94B5
:100D50005C0681E090E00895FB0101900020E9F736
:100D60003197AF01461B570BDC01ED91FC910280DE
:100D7000F381E02D0994009729F0BC0184E194E00F
:100D80000C94AC0690E080E0089561E080E00E9461
:100D9000730680911501909116018230910549F0FA
:100DA0008330910549F0019751F483EB91E00C9465
:100DB000BB068AE392E0FBCF89EB91E0F8CF089580
:100DC00061E085E00E94730680910D0190910E0113
:100DD000A0910F01B0911001803127E29207A10587
:100DE000B10509F46AC060F584369105A105B10525
:100DF00009F45AC078F481309105A105B10509F4D0
:100E00004BC00A97A105B10509F44BC081E092E0FF
:100E10000C94BB06883823E19207A105B10509F4BB
:100E200046C08A3628E19207A105B10509F442C0FF
:100E3000883E9340A105B10549F78EEC91E02EC0A4
:100E4000803523EC9207A105B105E9F170F4843DEA
:100E500020E39207A105B10599F1883A9146A105D1
:100E6000B105A1F685ED91E019C0803422E4920726
:100E70002FE0A207B10551F1803826E9920728E951
:100E8000A207B10531F1803A9648A140B10509F0B9
:100E9000BDCF8FEE91E002C08FEB91E00E94BB06C8
:100EA000B5CF83EC91E0FACF88EC91E0F7CF84EEF8
:100EB00091E0F4CF83ED91E0F1CF8BED91E0EECFB7
:100EC00081EE91E0EBCF89EE91E0E8CF86EF91E003
:100ED000E5CF8BEF91E0E2CF662379F0FC0144810E
:100EE0005581608171818BE693E00E947F016CE007
:100EF00072E08BE693E00C94AC0608950F931F9379
:100F0000CF93DF93EC0188819981009759F02A8172
:100F10003B812617370730F081E0DF91CF911F9199
:100F20000F9108958B016F5F7F4F0E944E1B0097BA
:100F300059F0998388831B830A832C813D81232B5D
:100F400059F7FC011082E8CF80E0E7CFCF93DF9321
:100F5000EC0188819981009711F00E94C51A1982CD
:100F600018821D821C821B821A82DF91CF91089504
:100F7000EF92FF920F931F93CF93DF93EC01FB014E
:100F8000E080F180E114F10411F104811581011573
:100F90001105A9F08C819D81080F191FB801CE01A0
:100FA0000E947E07882399F0288139818C819D8158
:100FB000B701820F931F0E94141C1D830C83CE0166
:100FC000DF91CF911F910F91FF90EF900895CE0187
:100FD0000E94A607F4CFEF92FF920F931F93CF9337
:100FE000DF93EC017B018A01BA010E947E07811127
:100FF0000BC0CE010E94A607CE01DF91CF911F91B9
:101000000F91FF90EF9008951D830C83B7018881A5
:1010100099810E94141CF0CFEF92FF920F931F93BF
:10102000CF93DF93CDB7DEB7A1970FB6F894DEBFAD
:101030000FBECDBF8C01CB01BA01F8011182108225
:1010400013821282158214822AE0AE014F5F5F4F35
:101050007A010E94D614F70101900020E9F7319738
:10106000AF014E195F09B701C8010E94EB07A196B5
:101070000FB6F894DEBF0FBECDBFDF91CF911F91A9
:101080000F91FF90EF900895FB01DC0111961C92E7
:101090001E9213961C921E92129715961C921E92E7
:1010A00014978617970749F0608171816115710562
:1010B00021F0448155810C94EB070895FC011182C5
:1010C00010821382128215821482FB01019000208B
:1010D000E9F73197AF01461B570B0C94EB07FC0166
:1010E00080819181009711F00C94C51A089585EDC7
:1010F0008093BC008091430390914403A0914503E9
:10110000B09146030796A11DB11D23E0B695A795A2
:10111000979587952A95D1F72091BC0024FD03C0AF
:10112000109241030895409143035091440360910C
:10113000450370914603452B462B472B69F30097D7
:10114000A105B10541F025E32A95F1F700000197CB
:10115000A109B109E1CF809142030C9481032F9240
:101160003F924F925F926F927F928F929F92AF9237
:10117000BF92CF92DF92EF92FF920F931F93CF9384
:10118000DF93CDB7DEB7AF970FB6F894DEBF0FBED3
:10119000CDBF8091110190911201A0911301B091E6
:1011A0001401409100015091010160910201709180
:1011B0000301481759076A077B0709F415C3809193
:1011C000110190911201A0911301B091140180932B
:1011D000000190930101A0930201B093030160917B
:1011E000110170911201809113019091140124E674
:1011F00030E040E050E00E941919F22E032F142F26
:10120000E52EB62FA72FF82FD92E222E932E842E1F
:10121000752E662E572E482E392E21153C4A4342F4
:101220005C4F664071058105910569F060F0212CE5
:101230003CEA932E43E2842E5CEF752E66E0662E28
:10124000512C412C312C222D392D482D572D662D16
:10125000752D842D932D20383A4146405105610566
:1012600071058105910558F480E8282E9AE1992EA0
:1012700026E0822E712C612C512C412C312C222DF8
:10128000392D482D572D662D752D842D932D2058E1
:101290003A414640510961097109810991092F3785
:1012A0003A4146405105610571058105910511F0EE
:1012B00008F0B3C2222D392D482D572D662D752DDE
:1012C000842D932D07E00E94E419222E932E842E64
:1012D000752E662E572E482E392EF7E0FB8F1FA253
:1012E000A22CB92CC82CD72CE62CF52C042D132DB0
:1012F00020E030EB4EE850EF6BE170E080E090E0F2
:101300000E9477192F8F38A349A35AA318A6EF8CF0
:10131000F8A009A11AA1A801970160E070E0CB0133
:10132000A22CB92CC82CD72CE62CF52C042D132D6F
:101330002B8B3C8B4D8B5E8B6F8B788F898F9A8F2D
:1013400060E070E080E090E00E94C1182CA73BA311
:101350004CA35DA36EA37DA78EA79FA708A5C12C54
:10136000D12C7601013079F0CF8CD8A0E9A0FAA079
:1013700017E0CC0CDD1CEE1CFF1C1A95D1F712E017
:10138000D11AE108F10880E10E945C05682F6F7DA9
:1013900080E10E942D052CA5209329048BA1809328
:1013A0002A049CA190932B04ADA1A0932C04BEA170
:1013B000B0932D04EDA5E0932E04FEA5F0932F0429
:1013C0000FA5009330042092390490923A04809241
:1013D0003B0470923C0460923D0450923E04409263
:1013E0003F043092400484E190E00E94291A8C016D
:1013F000DC011C9281E011968C938CE20E945C05CA
:101400009E2D93708C7F982BF8019283D382C48297
:10141000158216821782B8018AE20E94080580E1CF
:101420000E945C05FFA1682FF13009F00AC36064D7
:1014300080E10E942D05EFA0E09251048CE20E9411
:101440005C058378E1108C609B8D20E1929FB00158
:101450001124682B8CE20E942D050115110519F04D
:10146000C8010E94C51A60915A0470915B04809172
:101470005C0490915D0424E630E040E050E00E947E
:101480001919522E632E742E852E962E472E382E25
:10149000292E8091540490915504A0915604B09146
:1014A00057046C017D01FF0CCC08DC2C76019C01FB
:1014B000AD016C2D7C2D8C2D9C2D0FE10E94E4192B
:1014C000A12CEAECBE2EFAE9CF2EABE3DA2EE12C0A
:1014D000F12C00E010E00E944619A52CB62CC72C78
:1014E000D82CE92CF42C032D122D0E94C1180FE1E9
:1014F0000E94FF192B8B3C8B4D8B5E8B6F8B788FF3
:10150000898F9A8FEB88FC880D891E89110FEE0850
:10151000FE2C8701EB8EFC8E0D8F1E8F252D362D18
:10152000472D582D692D742D832D922DAB88BC88A5
:10153000CD88DE88EB8CFE2C0E2D1E2D0E941A1AF3
:101540002B8B3B8F4F8F5FA368A779A78AA79BA799
:101550008CA49DA42EA43FA4282D3BA14CA15DA149
:101560006EA1792DC1012115304B4E48504F6B4172
:1015700071058105910569F060F0812C10EB1BA3CA
:101580002EE82CA380EF8DA39BE19EA3912C212C10
:10159000312C282D3BA14CA15DA16EA1792DC1015B
:1015A000211538454744584F6D4071058105910517
:1015B00060F4812CB8E5BBA3E7E4ECA3F8EFFDA34E
:1015C0000DE00EA3912C212C312CAB88BB8CCF8C41
:1015D000DFA0E8A4F9A40AA51BA5282D3BA14CA1D6
:1015E0005DA16EA1792DC1010E94771929013A01EF
:1015F0001FE0A12E1FE0411651046104710440F068
:101600002BE54216510461047104D0F0BAE5AB2E0B
:10161000B12CC12CD12CE12CF12C00E010E02B8955
:101620003B8D4F8D5FA168A579A58AA59BA50E94DA
:10163000C118822E3BA34CA35DA36EA3972E1C0161
:10164000AB88BB8CCF8CDFA0E8A4F9A40AA51BA5AE
:10165000282D3BA14CA15DA16EA1792DC1010E9455
:101660007519AA24AA94BB24BA94AFE0CA2ED12C2F
:10167000E12CF12C00E010E00E94C118AB88BB8C7B
:10168000CF8CDFA0E8A4F9A40AA51BA50E947719B6
:10169000C901DA01812C912C540183940097A10592
:1016A000B10531F088248A94982CEFE0AE2EB12C4D
:1016B000BC01CD0127E0660F771F881F991F2A956F
:1016C000D1F7A50194010E949F18F62E372E282EDF
:1016D00067E0440C551C661C771C6A95D1F782E0C4
:1016E000581A61087108420E531E641E751E84E16B
:1016F00090E00E94291A8C01DC019C9211968C9238
:101700001197862D837012968C93129713965C9284
:10171000139714964C927CE0B694A7949794879470
:101720007A95D1F7B82DB07F8B2E8228F80185826B
:101730003682F782B8018AE10E9408050115110579
:1017400019F0C8010E94C51A60911101709112012F
:1017500080911301909114010E94591720E034E206
:1017600044E759E40E942D1807EE12E026E04AE013
:101770000E94AD144091110150911201609113012A
:1017800070911401CE0107960E940C086FE072E080
:10179000CE0101960E945E08BE01695F7F4FCE01B7
:1017A00001960E94B807BC01CE010D960E94440824
:1017B00061E0CE010D960E946C07CE010D960E944D
:1017C0006F08CE0101960E946F08CE0107960E9415
:1017D0006F0860E080E00E947306C8010E94BB06AB
:1017E0008DEF91E00E94BB06AF960FB6F894DEBF76
:1017F0000FBECDBFDF91CF911F910F91FF90EF9062
:10180000DF90CF90BF90AF909F908F907F906F9020
:101810005F904F903F902F900895222D392D482DA5
:10182000572D662D752D842D932D35534C40510920
:1018300061097109810991092F3F34434C405105D9
:10184000610571058105910509F0A8F4222D392D56
:10185000482D572D662D752D842D932D06E00E9461
:10186000E419222E932E842E752E662E572E482E86
:10187000392EF6E033CD222D392D482D572D662DEA
:10188000752D842D932D3A564841510961097109EE
:10189000810991092F3F394648415105610571057C
:1018A0008105910509F0A8F4222D392D482D572DD9
:1018B000662D752D842D932D05E00E94E419222EAE
:1018C000932E842E752E662E572E482E392EF5E037
:1018D00005CD222D392D482D572D662D752D842DA2
:1018E000932D345D404351096109710981099109C2
:1018F0002F3F334D40435105610571058105910529
:1019000009F0A8F4222D392D482D572D662D752D5F
:10191000842D932D04E00E94E419222E932E842E10
:10192000752E662E572E482E392EF4E0D7CC222D58
:10193000392D482D572D662D752D842D932D385A10
:101940004146510961097109810991092F3F374ABF
:1019500041465105610571058105910509F0A8F41D
:10196000222D392D482D572D662D752D842D932D23
:1019700003E00E94E419222E932E842E752E662EEB
:10198000572E482E392EF3E0A9CC222D392D482D83
:10199000572D662D752D842D932D3055434C5109AF
:1019A00061097109810991092F3F3F44434C510559
:1019B000610571058105910509F0A8F4222D392DE5
:1019C000482D572D662D752D842D932D02E00E94F4
:1019D000E419222E932E842E752E662E572E482E15
:1019E000392EF2E07BCC222D392D482D572D662D36
:1019F000752D842D932D305A464851406109710947
:101A0000810991092F3F3F494648514061057105C1
:101A10008105910509F0B8F4222D392D482D572D57
:101A2000662D752D842D932D01E00E94E419222E40
:101A3000932E842E752E662E572E482E392EF1E0C9
:101A40004DCC6F7BF5CC21E02FA32F2D302F412FD4
:101A50005E2D6B2F7A2F8F2F9D2D2F3F354D4141BE
:101A60005E47634071058105910509F008F41FA2E6
:101A70002F2D302F412F5E2D6B2F7A2F8F2F9D2DE5
:101A80001B8E2F3F354D41415E47634071058105F7
:101A9000910509F008F424CC01E008A784E090E067
:101AA000A0E0B0E08F8F98A3A9A3BAA330CC1F9277
:101AB0000F920FB60F9211242F933F934F935F9382
:101AC0006F937F938F939F93AF93BF93EF93FF9306
:101AD0008BE693E00E94FD01FF91EF91BF91AF91E2
:101AE0009F918F917F916F915F914F913F912F9136
:101AF0000F900FBE0F901F9018951F920F920FB668
:101B00000F9211242F938F939F93EF93FF93E09164
:101B10007B03F0917C038081E0918103F09182034B
:101B200082FD1BC09081809184038F5F8F73209111
:101B30008503821741F0E0918403F0E0E559FC4F02
:101B4000958F80938403FF91EF919F918F912F91B7
:101B50000F900FBE0F901F9018958081F4CF1F92A9
:101B60000F920FB60F9211242F933F938F939F9351
:101B7000AF93BF938091DA029091DB02A091DC02D7
:101B8000B091DD023091D10223E0230F2D3758F5BB
:101B90000196A11DB11D2093D1028093DA0290938A
:101BA000DB02A093DC02B093DD028091D20290911F
:101BB000D302A091D402B091D5020196A11DB11D0E
:101BC0008093D2029093D302A093D402B093D50213
:101BD000BF91AF919F918F913F912F910F900FBE29
:101BE0000F901F90189526E8230F0296A11DB11D96
:101BF000D2CF1F920F920FB60F9211242F933F93C3
:101C00004F935F936F937F938F939F93AF93BF9304
:101C1000EF93FF93E0910601F09107010995FF9181
:101C2000EF91BF91AF919F918F917F916F915F9154
:101C30004F913F912F910F900FBE0F901F901895CD
:101C40001F920F920FB60F9211242F933F934F9331
:101C50005F936F937F938F939F93AF93BF93EF9314
:101C6000FF93E0910401F09105010995FF91EF9137
:101C7000BF91AF919F918F917F916F915F914F91A4
:101C80003F912F910F900FBE0F901F9018951F92AC
:101C90000F920FB60F9211242F933F934F935F93A0
:101CA0006F937F938F939F93AF93BF93EF93FF9324
:101CB0008091B900887F803609F44AC0F0F58832F7
:101CC00009F4A7C018F5803109F49BC0B8F4882343
:101CD00009F4F9C0883009F494C0FF91EF91BF91E5
:101CE000AF919F918F917F916F915F914F913F91B4
:101CF0002F910F900FBE0F901F901895883109F407
:101D000088C0803251F780933F0314C0803409F4B7
:101D10009DC040F48033B9F38833F9F680933F03D4
:101D200085ECB0C0803509F485C0883509F496C0CB
:101D3000883499F60E947708D0CF883909F48CC08E
:101D400038F5883729F050F4883611F0803729F6B5
:101D500083E0809341031092D00257C0883809F481
:101D60007BC0803919F0803809F0B7CF8091D0025C
:101D7000803208F071C0E091D00281E08E0F809334
:101D8000D0028091BB00F0E0E055FD4F80833DC064
:101D9000803B39F0E0F4803A09F479C0883A09F0E0
:101DA0009CCF84E0809341031092AF021092AE0268
:101DB000E091D802F091D90209958091AE0281118B
:101DC0000FC081E08093AE0210928E0209C0803C69
:101DD00009F4A6CF883C09F4A3CF883B09F07DCF56
:101DE000E091AF0281E08E0F8093AF02F0E0E25706
:101DF000FD4F80818093BB009091AF028091AE0235
:101E000029C080911C038093BB0085EC8093BC00AB
:101E100064CF90913E0380913D03981758F5E0916F
:101E20003E0381E08E0F80933E03F0E0E35EFC4FC3
:101E30008081E9CFE0913E0381E08E0F80933E03E5
:101E40008091BB00F0E0E35EFC4F808390913E0305
:101E500080913D039817C8F285E8D8CFE0913E0302
:101E600081E08E0F80933E038091BB00F0E0E35E43
:101E7000FC4F80838091400381115CCF81E080938F
:101E80001B0384EA8093BC001092410326CF85ECAB
:101E90008093BC00109241038091D002803230F4D4
:101EA000E091D002F0E0E055FD4F10826091D00249
:101EB00070E0E091D602F091D70280EB92E00995B4
:101EC0001092D0020ACF10923F0334CFEBE6F3E03A
:101ED0001382128288EE93E0A0E0B0E084839583C1
:101EE000A683B78327E831E03183208325EC30E0F7
:101EF0003587248724EC30E03787268720EC30E0D4
:101F0000318B208B21EC30E0338B228B22EC30E0C4
:101F1000358B248B26EC30E0378B268B118E128E7E
:101F2000138E148EE8E0F4E013821282848395838A
:101F3000A683B78389E991E091838083E0E2F4E0AE
:101F400088E080AF81AF11AA12AA13AA1186128667
:101F500013861486158616861786108A118A128AA9
:101F6000138A148A158A168A178A108E118E128E79
:101F7000138E148E158E168E178E10A211A212A219
:101F800013A214A215A216A217A210A611A612A699
:101F900013A614A615A616A617A610AA80E498E7FD
:101FA000ADE7B1E082AF93AFA4AFB5AFE4E1F4E049
:101FB000138212828BEA91E09183808387E284838B
:101FC00080E1818782E0828713860895CF93DF9333
:101FD000CDB7DEB7AD970FB6F894DEBF0FBECDBF5D
:101FE000789484B5826084BD84B5816084BD85B5F4
:101FF000826085BD85B5816085BD80916E00816000
:1020000080936E00109281008091810082608093A5
:1020100081008091810081608093810080918000A7
:102020008160809380008091B10084608093B100D2
:102030008091B00081608093B00080917A008460CC
:1020400080937A0080917A00826080937A008091F8
:102050007A00816080937A0080917A008068809312
:102060007A001092C100E0917B03F0917C0382E042
:102070008083E0917703F09178031082E0917903F7
:10208000F0917A038FEC808310928303E0917F03B9
:10209000F091800386E08083E0917D03F0917E03E0
:1020A000808180618083E0917D03F0917E03808157
:1020B00088608083E0917D03F0917E038081806859
:1020C0008083E0917D03F0917E0380818F7D80830A
:1020D00082E00E94100183E00E94100185E00E94CE
:1020E000100188E391E090930501809304018091B1
:1020F0006900836080936900E89A8AE591E0909393
:10210000070180930601809169008C6080936900CB
:10211000E99A1092FA021092F90210924803109272
:102120006A030E9463031DE7C12E11E0D12ED092F5
:10213000D902C092D8020EE7E02E01E0F02EF09214
:10214000D702E092D60260E887EB0E942D0560E896
:1021500080E10E942D0560E881E10E942D0560E884
:1021600082E10E942D056CE080E10E942D056CE06B
:1021700081E10E942D056CE082E10E942D0560E264
:1021800081EB0E942D0560E881EB0E942D058EE910
:1021900099E2A1E0B0E08093540490935504A09399
:1021A0005604B093570480E10E945C05682F6C7F51
:1021B00080E10E942D0583E00E945C05682F62602B
:1021C00083E00E942D0583E00E945C05682F646017
:1021D00083E00E942D0580E00E945C05982F991FE6
:1021E0009927991F90932004282F86FB992790F90F
:1021F0009093210485FB992790F9909322042295CE
:1022000021702093230483708093240480E00E9433
:102210005C05982F991F9927991F9093250486FB99
:10222000992790F99093260485FB992790F990932C
:102230002704829581708093280480E896E9A8E9B4
:10224000B0E08093110190931201A0931301B09319
:10225000140160911101709112018091130190910C
:1022600014010E94591720E034E244E759E40E9427
:102270002D1807EE12E026E04AE00E94AD14B801E6
:102280008E010F5F1F4FC8010E945E0861E0C80108
:102290000E946C07C8010E946F080E94AF0810924C
:1022A000FA021092F9021092480310926A030E94F7
:1022B0006303D092D902C092D802F092D702E09282
:1022C000D6021092190480911E04823018F098E012
:1022D0009093190480931C0462E370E080E090E026
:1022E0000E94080360911F0484E194E00E94460567
:1022F00068EE73E080E090E00E94080360E384E110
:1023000094E00E9443067BE4E72E76E4F72EC701B3
:102310000197F1F760E384E194E00E944306C7016E
:102320000197F1F760E384E194E00E94430683E5BE
:1023300092E00197F1F760E284E194E00E944306A5
:1023400060911904606240E084E194E00E945C06C0
:1023500084E080931A0440E06CE084E194E00E9401
:102360005C0640E061E084E194E00E945C06EBE3FF
:10237000EE2EEFE1FE2EC7010197F1F782E0809388
:102380001B0440E066E084E194E00E945C0640E0CB
:1023900062E084E194E00E945C06C7010197F1F7D6
:1023A00088E080931F0460E084E194E00E94460589
:1023B00060E080E00E94730687EE92E00E94BB0618
:1023C0008DEF91E00E94BB060E94C5060E94E006C8
:1023D000F9E92F2EF1E03F2EAAE04A2E512C612C74
:1023E000712CAA24A394B12C60E0862E60E0962E76
:1023F000E1E7F1E08491EDEAF1E0E490F101F4909D
:10240000FF2009F467C181110E948C02EF2DF0E0DA
:10241000EE0FFF1FEE59FE4FA591B4918C91E8226B
:1024200091E080E009F490E09093E2028093E3026F
:102430002FB7F8948091DA029091DB02A091DC0230
:10244000B091DD022FBF4091DE025091DF0260911A
:10245000E0027091E102841B950BA60BB70B853649
:102460009105A105B10508F476C08091E202909132
:10247000E302892B09F031C1809108019091090193
:10248000019709F02AC12FB7F8948091DA02909150
:10249000DB02A091DC02B091DD022FBF8093DE024F
:1024A0009093DF02A093E002B093E10281E02091DB
:1024B000E2023091E302309309012093080188235E
:1024C00009F449C08091150190911601833091055E
:1024D00009F005C1B0921601A09215018091150175
:1024E000909116011BA21AA21DA21CA21FA21EA23D
:1024F0004AE0B8010E94CB14F80101900020E9F7EE
:102500003197AF01401B510BB801CE0182960E945A
:10251000EB0768E172E0CE0188960E945E08BE017A
:102520006E5D7F4FCE0188960E94B807BC01C8013E
:102530000E94440861E0C8010E946C07C8010E9423
:102540006F08CE0188960E946F08CE0182960E9485
:102550006F080E94C5069091F8028091F7029817C3
:1025600009F4A6C02091F70230E050E040E019A243
:102570007E01F1E2EF0EF11CCA01B901A301920143
:102580000E949F18605DF70162937F01211531055C
:102590004105510589F7309729F0BF018BE693E09B
:1025A0000E94AC066CE072E08BE693E00E94AC0601
:1025B0008091F7028093F8028091150190911601A5
:1025C0008130910509F0EAC067EE72E0C8010E940F
:1025D0005E0861E0C8010E946C07C8010E946F0894
:1025E0008091E602882309F480C0809111019091C6
:1025F0001201A0911301B091140140910D0150916D
:102600000E0160910F0170911001840F951FA61F9C
:10261000B71F81159846A948B940E0F480910D0193
:1026200090910E01A0910F01B09110014091110104
:10263000509112016091130170911401840F951F44
:10264000A61FB71F8093110190931201A09313014D
:10265000B093140140910D0150910E0160910F0152
:1026600070911001CE0182960E940C0862E272E025
:10267000CE0188960E945E08BE016E5D7F4FCE013E
:1026800088960E94B807BC01C8010E94440861E016
:10269000C8010E946C07C8010E946F08CE0188968D
:1026A0000E946F08CE0182960E946F080E94AF08B8
:1026B00061E070E080E090E00E94080381149104E2
:1026C00009F496CE0E94E901882309F48DCE0E9478
:1026D00000008ACE90E080E0A7CE80E0E8CE0196B0
:1026E0009093160180931501F9CE8091110190917C
:1026F0001201A0911301B091140140910D0150916C
:102700000E0160910F0170911001841B950BA60BB7
:10271000B70B81319742A105B10588F140910D01B8
:1027200050910E0160910F01709110018091110183
:1027300090911201A0911301B0911401481759070B
:102740006A077B07E0F440910D0150910E01609102
:102750000F01709110018091110190911201A091CF
:102760001301B0911401841B950BA60BB70B80933A
:10277000110190931201A0931301B09314014091A1
:102780000D0150910E0160910F0170911001CE0169
:1027900082960E940C086CE272E06ACF823091054A
:1027A00009F093C08091E602811169C010920C017A
:1027B00080910D0190910E01A0910F01B091100137
:1027C0000297A105B10508F473CF80910A01909199
:1027D0000B01019790930B0180930A01880F991FB9
:1027E000880F991FFC01EB5DFE4F80819181A281D2
:1027F000B38180930D0190930E01A0930F01B093CC
:10280000100140910D0150910E0160910F017091E6
:102810001001CE0182960E940C0866E372E0CE01A0
:1028200088960E945E08BE016E5D7F4FCE0188963D
:102830000E94B8077C01FC01C480D580F2E0CF0E75
:10284000D11CB6010E947E07811130C0C7010E94D1
:10285000A607B701C8010E94440861E0C8010E94B0
:102860006C07C8010E946F08CE0188960E946F080D
:10287000CE0182960E946F080E94E00619CF81E087
:1028800080930C0180910D0190910E01A0910F0198
:10289000B091100187379649A849B10508F008CFD3
:1028A00080910A0190910B01019694CFF70120814C
:1028B0003181848195816BEC71E0820F931F0E94BE
:1028C000141CF701D582C482C4CF039709F0F0CE5F
:1028D0002091E6028091E4029091E502211134C03A
:1028E00010920C01009709F4E3CE01979093E50252
:1028F0008093E402880F991F880F991FFC01E95902
:10290000FE4F80819181A281B381809311019093C8
:102910001201A0931301B09314010E94AF0861E06B
:1029200085E00E947306E091E402F091E502EE0F6B
:10293000FF1FE75AFE4F808191810E94BB0680E411
:1029400092E00E94BB06B4CE21E020930C018630B9
:10295000910509F4ADCE0196C9CFEF920F931F9365
:10296000CF93DF93E80134E047FD34E1042E000CFF
:10297000550B57FF03C0519541955109E32E022F86
:10298000242FAE010E941215CE01DF91CF911F912D
:102990000F91EF900895BB274A3031F4992322F428
:1029A000BDE2909581959F4F0C94F914BB27FA01D5
:1029B000A62F6217710581059105330B30FB66F078
:1029C000AA27660F771F881F991FAA1FA21710F04A
:1029D000A21B63953850A9F7A05DAA3308F0A95D42
:1029E000A19336F7B111B1931082CA010C94491723
:1029F000BB27FB015527AA27880F991FAA1FA417D9
:102A000010F0A41B83955051B9F7A05DAA3308F0CC
:102A1000A95DA193009779F7B111B1931192CB0100
:102A20000C944917A9E0B0E0E8E1F5E10C94ED174A
:102A30006A01F22EB02E102FFBE3AF2EA01608F481
:102A40001BE31F5F012F27E0AE014F5F5F4F0E9426
:102A50007116BC018981982F9970913009F43FC09B
:102A60009BE2E1FC04C09E2D9170E0FC3AC05E2D1B
:102A70005071E82FE87083FF46C084E0911101C0D7
:102A800083E0EF2DE81B8F1508F0E0E0D6018E2FD4
:102A900020E2552351F1992329F0D6019C93C601D8
:102AA00001966C0196012D5F3F4FE2FE24C08EE43B
:102AB000D6018C9391E411969C93119712968C9366
:102AC000D9018E2F90E281111BC0E20FF32FF11D6F
:102AD00010828EEF9FEF2996ECE00C9409189DE28E
:102AE000C6CF90E2C4CF2D9381508111FCCFCE0E82
:102AF000D11CE0E0D0CF8EE6D6018C9391E6DBCFFF
:102B00009D938150E0CF482F447082FF3DC084E008
:102B1000911101C083E08F1510F4EF2DE81BD60151
:102B20008E2F20E2552309F1992329F0D6019C9399
:102B3000C60101966C0196012D5F3F4FE2FE1BC05E
:102B400089E4D6018C938EE411968C93119786E4D8
:102B500012968C93D9018E2F90E2882309F4B5CF79
:102B60009D938150FACF2D9381508111FCCFCE0ED1
:102B7000D11CE0E0D9CF89E6D6018C938EE6119680
:102B80008C93119786E6E4CF9B0177FF02C030E07B
:102B900020E0A1E0B0E0911102C0B0E0A0E0F901B6
:102BA0003196AE0FBF1F8B2C912CBB2009F461C056
:102BB0005401EFEFAE1ABE0AAA0DBB1DFA161B0692
:102BC00019F014F04F2D4A1B511188C0E3FC59C075
:102BD0007601A42FB0E2A1114FC0C40ED11C9923DD
:102BE00009F45BC040E0D6011196F60190836D01B7
:102BF000552309F448C0012F060F9A81582F5071B0
:102C000084FF03C0913309F4015010160CF047C043
:102C1000093008F008E0EEE2FE2E5B01A01AB108D0
:102C200085019194819491082F3F320729F4D601B0
:102C3000FC92F60131966F016217730794F1021747
:102C400013077CF5DB01A21BB30BAA24A394B12CC0
:102C5000AC0EBD1EAA0DBB1D11968C9121503109E1
:102C6000D601119628153905F4F0F60180836D011F
:102C7000DBCFB12CA12CA0CFF701B1937F01A150E4
:102C8000AACF9111B0CFD601942F50E302C05D932B
:102C900091509111FCCFC40ED11C40E0ACCF01E0AB
:102CA000BACF80E3DBCF6217730731F4963388F431
:102CB000953311F4552369F0F6018083FD01842FCB
:102CC00090E2811108C0A40FB11D1C9290E080E039
:102CD00002CF81E3F1CF91938150F3CF911183CF54
:102CE0008ACF283008F027E03327DA01990F311D09
:102CF00087FD916000966105710539F432602E5FA1
:102D00003D9330E32A95E1F708959F3F30F08038F6
:102D10007105610509F03C5F3C5F3D93913008F01F
:102D20008068911DDF93CF931F930F93FF92EF92D3
:102D3000192F987F9695E92F96959695E90FFF277D
:102D4000EE53FF4F99273327EE24FF24A701E70115
:102D500005900894079428F4360FE71EF81E491FC3
:102D6000511D660F771F881F991F0694A1F70590C4
:102D7000079428F4E70EF81E491F561FC11D770F50
:102D8000881F991F661F0694A1F70590079428F4E1
:102D9000F80E491F561FC71FD11D880F991F661FA8
:102DA000771F0694A1F70590079420F4490F561F4A
:102DB000C71FD81F990F661F771F881F0694A9F792
:102DC00084911095177041F0D695C7955795479502
:102DD000F794E7941A95C1F7E8E6F0E06894159047
:102DE000159135916591959105907FE27395E11864
:102DF000F10A430B560BC90BD009C0F7E10CF11EC9
:102E0000431F561FC91FD01D7EF4703311F48A95DD
:102E1000E6CFE894015030F0080F0AF400270217BB
:102E200008F4202F2395022F7A3328F079E37D933D
:102E30002A95E9F710C07D932A9589F6069497950F
:102E40006795379517951794E118F10A430B560BC0
:102E5000C90BD00998F023957E9173957A3308F0C9
:102E600070E37C932013B8F77E9170617D9330F00E
:102E7000839571E37D9370E32A95E1F71124EF9038
:102E8000FF900F911F91CF91DF91992787FD90952A
:102E90000895DC01FC01672F71917723E1F73297E8
:102EA00004C07C916D9370836291AE17BF07C8F325
:102EB0000895E89409C097FB3EF49095809570952D
:102EC00061957F4F8F4F9F4F9923A9F0F92F96E976
:102ED000BB279395F695879577956795B795F111EB
:102EE000F8CFFAF4BB0F11F460FF1BC06F5F7F4F88
:102EF0008F4F9F4F16C0882311F096E911C077239A
:102F000021F09EE8872F762F05C0662371F096E8A2
:102F1000862F70E060E02AF09A95660F771F881F71
:102F2000DAF7880F9695879597F9089597F99F672F
:102F300080E870E060E008959FEF80EC0895002441
:102F40000A941616170618060906089500240A940E
:102F500012161306140605060895092E0394000C94
:102F600011F4882352F0BB0F40F4BF2B11F460FF23
:102F700004C06F5F7F4F8F4F9F4F089557FD90584C
:102F8000440F551F59F05F3F71F04795880F97FB2D
:102F9000991F61F09F3F79F08795089512161306E7
:102FA0001406551FF2CF4695F1DF08C01616170616
:102FB0001806991FF1CF869571056105089408954B
:102FC000E894BB2766277727CB0197F908952F92BE
:102FD0003F924F925F926F927F928F929F92AF92A9
:102FE000BF92CF92DF92EF92FF920F931F93CF93F6
:102FF000DF93CDB7DEB7CA1BDB0B0FB6F894DEBF8D
:103000000FBECDBF09942A88398848885F846E84B2
:103010007D848C849B84AA84B984C884DF80EE80FC
:10302000FD800C811B81AA81B981CE0FD11D0FB605
:10303000F894DEBF0FBECDBFED010895A29FB00191
:10304000B39FC001A39F700D811D1124911DB29FDC
:10305000700D811D1124911D08950E9441180C943A
:10306000AD170E94A61758F00E949F1740F029F450
:103070005F3F29F00C94961751110C94E1170C94B2
:103080009C170E94BE1768F39923B1F3552391F35F
:10309000951B550BBB27AA2762177307840738F0C7
:1030A0009F5F5F4F220F331F441FAA1FA9F335D024
:1030B0000E2E3AF0E0E832D091505040E695001CD8
:1030C000CAF72BD0FE2F29D0660F771F881FBB1F92
:1030D000261737074807AB07B0E809F0BB0B802D70
:1030E000BF01FF2793585F4F3AF09E3F510578F09C
:1030F0000C9496170C94E1175F3FE4F3983ED4F3D9
:10310000869577956795B795F7959F5FC9F7880F6F
:10311000911D9695879597F90895E1E0660F771FC1
:10312000881FBB1F621773078407BA0720F0621B52
:10313000730B840BBA0BEE1F88F7E0950895A1E29C
:103140001A2EAA1BBB1BFD010DC0AA1FBB1FEE1F21
:10315000FF1FA217B307E407F50720F0A21BB30B6C
:10316000E40BF50B661F771F881F991F1A9469F7E8
:1031700060957095809590959B01AC01BD01CF0144
:103180000895DF93CF931F930F939A9DF02D219F66
:10319000F00D8B9DF00D8A9DE02DF10D039FF00D3C
:1031A000029FE00DF11D4E9DE00DF11D5E9DF00DA5
:1031B0004F9DF00D7F936F93BF92AF925F934F93AC
:1031C000D5010E941E188B01AC01D7010E941E1868
:1031D000EB01E80FF91FD6010E9410192F913F91C2
:1031E000D6010E941E18C60FD71FE81FF91FAF9106
:1031F000BF910E9410192F913F910E941E18C60F77
:10320000D71FE81FF91FD6010E941E18E60FF71FEF
:103210009801BE01CF010F911F91CF91DF910895C9
:103220000E941E18460F571FC81FD91F08F4319659
:103230000895E894DF93CF93FC01DB010E941E18F0
:103240007F936F93E9019A01AC01BF93AF933F93D2
:103250002F93DF010E941E1826F46C1B7D0B820B3E
:10326000930B9E01EB01FC010E941019AF91BF91DD
:103270002F913F910E941019BE01CF01F9012F91AA
:103280003F91CF91DF910895689401C0E894F92FA0
:10329000F12B12F00C947819A0E0B0E0E2E5F9E12E
:1032A0000C94ED17092E059422F40E94D4191123D1
:1032B00092F4F0E80F26FFEFE094F094009510955B
:1032C000B094C094D094A194BF0ACF0ADF0AEF0A49
:1032D000FF0A0F0B1F0B0E94831907FC0E94D419D1
:1032E000CDB7DEB7ECE00C940918689401C0E894FF
:1032F0008F929F92CF93DF930E948319DF91CF919A
:103300009F908F90089588249924F401E401B0E4FB
:103310009F93AA279A158B049C04ED05FE05CF0503
:10332000D007A10798F4AD2FDC2FCF2FFE2FE92D6A
:10333000982C892E982F872F762F652F542F432F67
:10334000322F2227B85031F7BF9127C01B2EBF91D3
:10335000BB27220F331F441F551F661F771F881F6F
:10336000991F881C991CEE1FFF1FCC1FDD1FAA1F71
:10337000BB1F8A149B04EC05FD05CE05DF05A007E5
:10338000B10748F08A189B08EC09FD09CE09DF094E
:10339000A00BB10B21601A94E1F62EF49401AF0159
:1033A000BE01CD01000C08956095709580959095B3
:1033B00030954095509521953F4F4F4F5F4F6F4F40
:1033C0007F4F8F4F9F4F0895002E083090F0982F19
:1033D000872F762F652F542F432F322F2227085007
:1033E000F4CF220F331F441F551F661F771F881FFE
:1033F000991F0A95B2F7002D089597FD1094002E9D
:10340000083098F00850232F342F452F562F672F60
:10341000782F892F912DF4CF1594979587957795CF
:10342000679557954795379527950A95AAF71124DB
:10343000002D08952A0D3B1D4C1D5D1D6E1D7F1D29
:10344000801F911F0895EE0FFF1F0590F491E02D4E
:1034500009940F931F93CF93DF938230910510F45B
:1034600082E090E0E0916004F091610430E020E0BF
:10347000B0E0A0E0309799F42115310509F44AC075
:10348000281B390B24303105D8F58A819B816115C1
:10349000710589F1FB0193838283FE0111C0408194
:1034A00051810281138148175907E0F048175907E5
:1034B00099F4109761F012960C93129713961C933F
:1034C0003296CF01DF91CF911F910F910895009314
:1034D000600410936104F4CF2115310551F04217B7
:1034E000530738F0A901DB019A01BD01DF01F801A2
:1034F000C1CFEF01F9CF9093610480936004CDCFE9
:10350000FE01E20FF31F8193919322503109398319
:103510002883D7CF20915E0430915F04232B41F4A0
:103520002091190130911A0130935F0420935E04B9
:1035300020911701309118012115310541F42DB763
:103540003EB740911B0150911C01241B350BE091AB
:103550005E04F0915F04E217F307A0F42E1B3F0B0B
:103560002817390778F0AC014E5F5F4F24173507F5
:1035700048F04E0F5F1F50935F0440935E048193A9
:1035800091939FCFF0E0E0E09CCFCF93DF93009743
:10359000E9F0FC01329713821282A0916004B0918D
:1035A0006104ED0130E020E01097A1F42081318129
:1035B000820F931F20915E0430915F042817390712
:1035C00009F061C0F0935F04E0935E04DF91CF9156
:1035D0000895EA01CE17DF07E8F54A815B819E0175
:1035E00041155105B1F7E901FB83EA8349915991EE
:1035F000C40FD51FEC17FD0761F4808191810296FD
:10360000840F951FE90199838883828193819B832D
:103610008A83F0E0E0E012968D919C9113970097D9
:10362000B9F52D913C911197CD010296820F931F10
:1036300020915E0430915F042817390739F63097DE
:1036400051F51092610410926004B0935F04A0934E
:103650005E04BCCFD383C28340815181840F951F08
:10366000C817D90761F44E5F5F4F88819981480F71
:10367000591F518340838A819B81938382832115C3
:10368000310509F0B0CFF0936104E09360049ECF60
:10369000FD01DC01C0CF13821282D7CFB0E0A0E0E1
:1036A000E4E5FBE10C94E9178C01009751F4CB01A0
:1036B0000E94291A8C01C801CDB7DEB7E0E10C9455
:1036C0000518FC01E60FF71F9C0122503109E21793
:1036D000F30708F49DC0D901CD91DC911197C6176D
:1036E000D70798F0C530D10530F3CE01049786177F
:1036F000970708F3C61BD70B2297C193D1936D93FD
:103700007C93CF010E94C51AD6CF5B01AC1ABD0ACB
:103710004C018C0E9D1EA0916004B0916104512C4F
:10372000412CF12CE12C109731F580915E049091A1
:103730005F048815990509F05CC04616570608F025
:1037400058C08091170190911801009741F48DB7EE
:103750009EB740911B0150911C01841B950BE817EB
:10376000F90708F055C0F0935F04E0935E04F90197
:1037700071836083A0CF8D919C91119712966C906C
:10378000129713967C901397A815B90559F56C01FB
:1037900042E0C40ED11CCA14DB0420F1AC014A196A
:1037A0005B09DA011296159780F062827382518369
:1037B0004083D9016D937C93E114F10471F0D7013A
:1037C0001396FC93EE93129776CF22968C0F9D1F43
:1037D000F90191838083F301EFCFF0936104E093CB
:1037E000600469CF4816590608F42C017D01D30105
:1037F0009ACFCB010E94291A7C01009749F0AE01B3
:10380000B8010E940B1CC8010E94C51A870153CF42
:1038100010E000E050CFFB01DC0102C001900D92EE
:1038200041505040D8F70895FB01DC0101900D9202
:0A3830000020E1F70895F894FFCF9F
:10383A00C0A39B003A033A0301000A000140420F69
:10384A000080969800010000006204800000004099
:10385A000014005400010000000A00000064000087
:10386A0000E8030000881300006A1800001027000F
:10387A0000D4300000A861000050C30000A08601F7
:10388A000040420F0080969800480252025D02658D
:10389A00026D02760280029462A80100A9C3016047
:1038AA0027AC08107CD7008096980000409C0098AE
:1038BA00493601000000001F027F01AC016C02DDE5
:1038CA0001BB01CF0100000000D904AC04590589ED
:1038DA0004090199048A0400000000A6067F015920
:1038EA00053B0352756E2020004D656D2020003186
:1038FA00487A003130487A00313030487A00316BEA
:10390A00487A00362E32356B487A0031306B487A65
:10391A000031322E356B487A0035306B487A0031E7
:10392A0030306B487A00314D487A0031304D487A50
:10393A000020537465702020202020000D0A007397
:10394A006574467265713A004E6577204D6F6465FD
:10395A00200053746570202B7665200053746570BF
:10396A00202D766520004E657720537465702000FF
:10397A00204D656D20202000554B4342204348319D
:10398A00390031304D20464D43414C4C0056484693
:10399A00205332300032304D205453540052656661
:1039AA0031304D687A0058746C5F31302E323400F1
:0A39BA0043422032302E3333350033
:00000001FF
